:100000000C943A000C9457000C9457000C94570031
:100010000C9457000C9499020C9457000C945700C0
:100020000C9457000C9457000C9457000C945900F2
:100030000C9457000C9457000C94C5000C94570076
:100040000C9457000C9457000C94F9000C94570032
:100050000C9457000C9457000C9457000C945700C4
:100060000C9457000C9457006364696E6F7073753D
:1000700078585B0011241FBECFEFD8E0DEBFCDBFA4
:1000800011E0A0E0B1E0E2EAFAE102C005900D92D1
:10009000A036B107D9F721E0A0E6B1E001C01D927A
:1000A000AD37B207E1F70E944C030C944F0D0C944E
:1000B00000001F920F920FB60F9211242F938F936F
:1000C0009F9380916C0190916D01892B41F431993E
:1000D0004DC081E090E090936D0180936C01809120
:1000E0006C0190916D010197A9F4329944C082E0AE
:1000F00090E090936D0180936C0180916E019091DE
:100100006F01813A9F4034F083E090E090936D015D
:1001100080936C0180916C0190916D01029761F464
:1001200031990AC081E090E090936D0180936C0159
:1001300010926F0110926E0180916C0190916D018F
:10014000039761F431990AC081E090E090936D01CA
:1001500080936C0110926F0110926E019F918F91AC
:100160002F910F900FBE0F901F90189510926F0156
:1001700010926E01B4CF80916E0190916F01019643
:1001800090936F0180936E01B8CF1F920F920FB6BC
:100190000F9211248F939F9380916A0190916B012C
:1001A000181619066CF488B190E2892788B98091F5
:1001B0006A0190916B01019790936B0180936A01A2
:1001C00080916A0190916B01892B61F480916801A3
:1001D00090916901019731F482E090E09093690178
:1001E000809368019F918F910F900FBE0F901F9089
:1001F00018951F920F920FB60F9211242F933F93D1
:100200004F935F936F937F938F939F93AF93BF931E
:10021000CF93DF93EF93FF938091C00087FFFCCFD4
:100220008091C6008B35B1F481E090E09093650138
:1002300080936401109263011092620180E28093C6
:1002400000018093010180930201809303011092C9
:1002500004011BC0C0916401D0916501C130D1057A
:1002600009F050C080330CF44DC08A330CF5209156
:10027000620130916301F901E050FF4F80832F5FED
:100280003F4F3093630120936201FF91EF91DF9123
:10029000CF91BF91AF919F918F917F916F915F911E
:1002A0004F913F912F910F900FBE0F901F90189577
:1002B0008D3541F5109267011092660180E091E062
:1002C000E0916201F0916301E050FF4F108226E659
:1002D00031E03F932F9326E431E03F932F939F9398
:1002E0008F930E946C07D0936101C09360011092BC
:1002F0006501109264010F900F900F900F900F9076
:100300000F90C3CF109265011092640193CF9BB1FF
:100310009F709BB99BB1807F892B8BB9299A299AB1
:1003200029980895CF93C82F28980E9487018C2F71
:100330008295807F0E9487018FE39FE10197F1F70B
:1003400000C00000CF910895811104C080E8860F9D
:100350000C94920180ECFBCF84B1836084B98AB1A4
:10036000806F8AB98FE59AEE0197F1F700C000001F
:1003700080E30E9487018FE19EE40197F1F700C0BE
:10038000000080E30E9487018FED91E00197F1F773
:1003900000C0000080E30E94870180E20E94870184
:1003A0008FE39FE10197F1F700C0000088E20E940F
:1003B00092018FE00C949201CF93C82F289A0E944B
:1003C00087018C2F8295807F0E9487018FE39FE1B8
:1003D0000197F1F700C00000CF910895CF93DF930C
:1003E000EC018991811103C0DF91CF9108950E94A2
:1003F000DC01F7CFE0EBF0E08081836080838081D7
:100400008068808385E28093B300E1EBF0E0808137
:100410008760808308951092790110927801E1E855
:10042000F0E0808188608083AFE6B0E08C918260EC
:100430008C938081836080838AEF90E09093890021
:1004400080938800089584B5826084BDEEE6F0E074
:1004500080818260808388EC87BD85B5846085BD9E
:10046000089587E690E09093C5008093C400E1EC86
:10047000F0E080818861808380818068808386E06D
:100480008093C20008951092770190E080E00E946E
:10049000FE0C90E090937B0180937A0180917A0129
:1004A00090917B01181619063CF480917A01909185
:1004B0007B018436910534F082E390E090937B01D8
:1004C00080937A014A9917C081E080937C014B990F
:1004D00015C081E08093740180917401811111C075
:1004E00080917C0181110DC0109275018091750180
:1004F00080937601089510927C01E9CF10927401E7
:10050000EBCF80917401811108C080917C01882318
:1005100021F081E080937501E9CF809174018823F7
:1005200031F080917C01811102C082E0F3CF83E041
:10053000F1CF1F920F920FB60F9211248F939F93BA
:100540004A991CC081E080937C014B991AC081E0DC
:100550008093740180917501811122C080917C018A
:10056000813091F49091760190937501809376019A
:1005700080917A0190917B01019626C010927C01B6
:10058000E4CF10927401E6CF80917401813001F5BF
:10059000809176018093750183E0809376010FC08E
:1005A00080917501813009F03FC080917C018111FB
:1005B00031C080917601809375011092760180910F
:1005C0007A0190917B01019790937B0180937A014E
:1005D0009091760180917501981739F081E08093B0
:1005E0007701809176018093750180917A019091D5
:1005F0007B01181619060CF444C081E090E090933A
:100600007B0180937A019F918F910F900FBE0F9085
:100610001F901895809174018130D1F680917601F8
:100620008093750182E0A2CF809175018230A1F4A0
:1006300080917C01811106C08091760180937501C3
:1006400083E094CF809174018111C2CF80917601B3
:100650008093750181E0A1CF80917C01813031F4DC
:10066000809176018093750182E097CF809174012B
:100670008111AECF80917601809375011092760141
:1006800077CF80917A0190917B01843691050CF4AB
:10069000BACF83E690E0B3CFCF93DF93CDB7DEB789
:1006A00065970FB6F894DEBF0FBECDBF449880911A
:1006B000680084608093680080916D008C608093F6
:1006C0006D0078948BB18C608BB988B1866088B9E5
:1006D0003D9A239A3B9A3C9A84B1806384B90E94E4
:1006E00023020E940B020E94FA010E9443020E9410
:1006F00031020E94AC0181E00E94920160E080E042
:100700000E94A40185E091E00E94EE0160E081E09A
:100710000E94A40180E191E00E94EE012FEF33EDF1
:1007200080E3215030408040E1F700C0000081E0CC
:100730000E94920160E081E00E94A40180917A0110
:1007400090917B019F938F9386E491E09F938F9389
:100750001F928FE08F938E010F5F1F4F1F930F9398
:100760000E943C078EE191E00E94EE01C8010E94C8
:10077000EE010FB6F894DEBF0FBECDBF4E0130E1E3
:10078000830E911C8FE0D82E95E0C92E222423944D
:10079000312C80917701882321F110927701E0902C
:1007A0007A01F0907B016E2D90E080E00E94060DB2
:1007B00060E081E00E94A401FF24FF92EF9283E2B7
:1007C00091E09F938F931F92DF921F930F930E944C
:1007D0003C07C8010E94EE010FB6F894DEBF0FBEC1
:1007E000CDBF8091600190916101892B09F444C0D3
:1007F00010926101109260018091660190916701F1
:100800006AE070E00E943C059F938F937F936F9303
:1008100023E431E03F932F931F92CF929F928F92C8
:100820000E943C071D8A6CE081E00E94A401C40183
:100830000E94EE0120916601309167010FB6F89495
:10084000DEBF0FBECDBF12161306B4F44091720185
:10085000509173016AE0649FC001659F900D11245F
:100860004091700150917101840F951F8217930779
:100870000CF4F5C02D9A2C9880916C0190916D012B
:10088000019769F4109269011092680160E080E0BC
:100890000E94A4018CE291E00E94EE01439A8091B3
:1008A0006C0190916D01029709F0C4C060E080E096
:1008B0000E94A401E0906E01F0906F0127010F2CBF
:1008C000000C6608770868E873E180E090E0A30117
:1008D00092010E945005B22EA32E209372013093F4
:1008E000730160E573EC80E090E0A30192010E9447
:1008F0005005CA01B9012AE030E040E050E00E9412
:10090000500560937001709371017F936F93AF9264
:10091000BF92FF92EF922DE331E03F932F931F920E
:10092000DF921F930F930E943C07C8010E94EE01C3
:10093000609172017091730180917A0190917B01B5
:100940000FB6F894DEBF0FBECDBF6817790784F0ED
:100950008091680190916901892B51F48CE990E0B4
:1009600090936B0180936A01309269012092680133
:10097000072E000C880B990B0E94430626E636E6EC
:1009800046E65EE30E94CF069B01AC0160E070E0AA
:1009900086E192E40E94A5050E9412066093B300CE
:1009A0004398809171018F93809170018F93809112
:1009B00073018F93809172018F9329E431E03F930B
:1009C0002F931F92CF921F930F930E943C070FB655
:1009D000F894DEBF0FBECDBF8091C00085FFFCCF75
:1009E0008BE58093C600F80181918D35D9F5809112
:1009F000C00085FFFCCF8DE58093C6002091660185
:100A00003091670112161306ACF4409172015091B7
:100A100073016AE0649FC001659F900D11244091AD
:100A2000700150917101840F951F821793070CF18B
:100A30002D9A2C9880916C0190916D01039709F08B
:100A4000A8CE109269011092680160E080E00E94D7
:100A5000A4018FE491E00E94EE01439893CE2C9A7A
:100A60002D980ACF9091C00095FFFCCF8093C600CF
:100A7000BBCF2C9A2D98DECF97FB072E16F400944F
:100A800007D077FD09D00E946F0507FC05D03EF422
:100A9000909581959F4F0895709561957F4F08952A
:100AA000052E97FB1EF400940E94670557FD07D0A2
:100AB0000E94830507FC03D04EF40C946705509503
:100AC0004095309521953F4F4F4F5F4F089590953A
:100AD0008095709561957F4F8F4F9F4F0895AA1B0A
:100AE000BB1B51E107C0AA1FBB1FA617B70710F019
:100AF000A61BB70B881F991F5A95A9F7809590954B
:100B0000BC01CD010895A1E21A2EAA1BBB1BFD0159
:100B10000DC0AA1FBB1FEE1FFF1FA217B307E407DC
:100B2000F50720F0A21BB30BE40BF50B661F771F34
:100B3000881F991F1A9469F7609570958095909514
:100B40009B01AC01BD01CF0108955058BB27AA27D6
:100B50000E94BD050C9495060E94870638F00E94FD
:100B60008E0620F039F49F3F19F426F40C94840685
:100B70000EF4E095E7FB0C947E06E92F0E94A60692
:100B800058F3BA17620773078407950720F079F4C2
:100B9000A6F50C94C8060EF4E0950B2EBA2FA02DE6
:100BA0000B01B90190010C01CA01A0011124FF271A
:100BB000591B99F0593F50F4503E68F11A16F04015
:100BC000A22F232F342F4427585FF3CF4695379514
:100BD0002795A795F0405395C9F77EF41F16BA0BD9
:100BE000620B730B840BBAF09150A1F0FF0FBB1F87
:100BF000661F771F881FC2F70EC0BA0F621F731FD0
:100C0000841F48F4879577956795B795F7959E3F2C
:100C100008F0B0CF9395880F08F09927EE0F9795BD
:100C2000879508950E94AE0688F09F5798F0B92FD7
:100C30009927B751B0F0E1F0660F771F881F991F11
:100C40001AF0BA95C9F714C0B13091F00E94C806E5
:100C5000B1E008950C94C806672F782F8827B85FF5
:100C600039F0B93FCCF3869577956795B395D9F769
:100C70003EF490958095709561957F4F8F4F9F4F73
:100C80000895E89409C097FB3EF49095809570957F
:100C900061957F4F8F4F9F4F9923A9F0F92F96E9C8
:100CA000BB279395F695879577956795B795F1113D
:100CB000F8CFFAF4BB0F11F460FF1BC06F5F7F4FDA
:100CC0008F4F9F4F16C0882311F096E911C07723EC
:100CD00021F09EE8872F762F05C0662371F096E8F5
:100CE000862F70E060E02AF09A95660F771F881FC4
:100CF000DAF7880F9695879597F9089597F99F6782
:100D000080E870E060E008959FEF80EC0895002493
:100D10000A941616170618060906089500240A9460
:100D200012161306140605060895092E0394000CE6
:100D300011F4882352F0BB0F40F4BF2B11F460FF75
:100D400004C06F5F7F4F8F4F9F4F089557FD90589E
:100D5000440F551F59F05F3F71F04795880F97FB7F
:100D6000991F61F09F3F79F0879508951216130639
:100D70001406551FF2CF4695F1DF08C01616170668
:100D80001806991FF1CF869571056105089408959D
:100D9000E894BB2766277727CB0197F908950E942F
:100DA000E2060C9495060E94870638F00E948E0693
:100DB00020F0952311F00C947E060C9484061124E7
:100DC0000C94C9060E94A60670F3959FC1F3950F77
:100DD00050E0551F629FF001729FBB27F00DB11DBF
:100DE000639FAA27F00DB11DAA1F649F6627B00D4F
:100DF000A11D661F829F2227B00DA11D621F739F38
:100E0000B00DA11D621F839FA00D611D221F749F45
:100E10003327A00D611D231F849F600D211D822F8C
:100E2000762F6A2F11249F5750409AF0F1F08823B3
:100E30004AF0EE0FFF1FBB1F661F771F881F9150E0
:100E40005040A9F79E3F510580F00C947E060C940B
:100E5000C9065F3FE4F3983ED4F38695779567958E
:100E6000B795F795E7959F5FC1F7FE2B880F911D0A
:100E70009695879597F90895AEE0B0E0E2E4F7E043
:100E80000C94260D0D891E898F89988D26E02C8360
:100E90001A83098397FF02C080E090E801979E8340
:100EA0008D83AE01455E5F4F698D7A8DCE010196CF
:100EB0000E9485074D815E8157FD0AC02F813885CC
:100EC000421753070CF49A01020F131FF801108206
:100ED0002E96E4E00C94420DAEE0B0E0E2E7F7E0DD
:100EE0000C94280D85E08C838B899C899A83898357
:100EF000AE01495E5F4F6D897E89CE0101960E94E9
:100F0000EA0A2E96E2E00C94440DABE0B0E0EBE888
:100F1000F7E00C94180D7C013B018A01FC0117825B
:100F20001682838181FFC8C1CE0101965C01F70161
:100F30009381F30193FD859193FF81913F01882374
:100F400009F453C1853239F493FD859193FF819162
:100F50003F01853229F4B70190E00E94550CE7CF9C
:100F6000912C212C312CFFE1F31538F08B3211F14B
:100F700090F4803209F1833229F137FC3CC020ED36
:100F8000280F2A3050F536FE20C08AE0989E200DAA
:100F90001124922E06C08D3291F0803371F768943F
:100FA00030F8F30193FD859193FF81913F01811109
:100FB000DACF21C0689431F8689432F8F2CF68949F
:100FC00033F8EFCF689434F8ECCFEAE02E9E200D92
:100FD0001124222E689435F8E4CF8E3229F436FCA1
:100FE00004C1689436F8DDCF8C3619F4689437F86C
:100FF000D8CF8836B1F2982F9F7D95549330E0F08A
:101000008336A1F18337C1F1833509F063C028012C
:10101000F2E04F0E511CF801C080D180692D70E0C4
:1010200036FC02C06FEF7FEFC6010E94030C4C013B
:10103000689437F882010AC00C5F1F4FFFE3F98301
:1010400088248394912C6501E89437F833FE2DC0F1
:10105000522C8114910471F5552009F468CFB70121
:1010600080E290E00E94550C5A94F6CFF8018081FE
:1010700089830E5F1F4FE4CF2801F2E04F0E511C11
:10108000F801C080D180692D70E036FC02C06FEF9E
:101090007FEFC6010E940E0C4C018201D5CFB70133
:1010A00080E290E00E94550C2A942814190409F05B
:1010B000B0F7CECFF60137FC859137FE81916F01F5
:1010C000B70190E00E94550C51105A94F1E08F1A2C
:1010D0009108BFCF843619F0893609F077C0F8013E
:1010E00037FE6BC060817181828193810C5F1F4FDD
:1010F000F32DFF763F2E97FF09C090958095709550
:1011000061957F4F8F4F9F4F689437F82AE030E00A
:10111000A5010E949D0CC82ECA188C2C432C36FEAB
:101120000CC0E89440F8C91440F434FE05C032FC09
:1011300003C0F32DFE7E4F2E892C44FE95C0FE0188
:10114000EC0DF11D8081803309F087C0242D297EAC
:10115000422E842D8870582E43FC95C040FE8FC0CF
:101160009C2C821418F42C0C922C981844FE91C0DC
:10117000B70180E390E00E94550C42FE09C088E769
:1011800090E041FE02C088E590E0B7010E94550C56
:10119000C91408F48AC0CA94D12C9FEFC91AD90A7D
:1011A000CA0CDB1CF60182916F01B70190E00E942E
:1011B000550CAC14BD04B1F74FCF60817181072E7F
:1011C000000C880B990B0E5F1F4F92CFD32CE89425
:1011D000D4F82AE030E0853739F1232D297FD22E4B
:1011E0008F3601F148F48835A9F0F701868197819F
:1011F0002B96E2E10C94340D803749F08837A9F73B
:10120000D4FE02C06894D2F820E130E00DC06894AA
:10121000D4F8F6CF34FE03C0822F8660D82E20E1AA
:1012200032E002C028E030E0F801D7FE0FC0608154
:101230007181828193810C5F1F4FA5010E949D0CDB
:10124000C82ECA183D2CE89437F867CF60817181A9
:1012500090E080E00E5F1F4FF0CF42FC02C083940D
:1012600078CF8394839475CF842D867809F471CFD9
:10127000F6CFB70180E290E00E94550C839482146F
:10128000C0F3512C73CF522C5818821408F46ECF2F
:10129000F8CF842D867809F47BCF8BE241FE80E283
:1012A00047FC8DE2B70190E071CFB70180E390E099
:1012B0000E94550C9A946CCF8FEF9FEF99CF20FD31
:1012C00009C0FC0123FD05C022FF02C073836283B5
:1012D00051834083089544FD17C046FD1DC0DB01C6
:1012E000FC01AA0FBB1FEE1FFF1F1094D1F76A0F5E
:1012F0007B1F8E1F9F1F660F771F881F991F620F0E
:10130000711D811D911D089533E0660F771F881FA1
:10131000991F3150D1F7F3CF34E0F7CF0F931F93DC
:10132000CF93DF938C01C8010E94190CEC0197FD4B
:1013300008C00E94EF0B892BB1F7B801CE010E94C3
:10134000850CCE01DF91CF911F910F9108958F925F
:101350009F92AF92BF92EF92FF920F931F93CF9302
:10136000DF938C01D62F7A01B22E0E94190C9C01BA
:1013700033272B32310529F02D323105A9F4689439
:10138000B7F8D15061F480E0DF91CF911F910F91B8
:10139000FF90EF90BF90AF909F908F900895C801FD
:1013A0000E94190C97FDEFCFCB2DCD7F2B2D2073F5
:1013B000F9F48033E9F4AA24AA94AD0E89F0C801A7
:1013C0000E94190C97FD0CC0282F2F7D283561F441
:1013D000C264D25029F0C8010E94190C97FF08C0BE
:1013E000812C912C54011BC0B6FE2BC0C260DA2D9B
:1013F000812C912C540120ED280F283028F1C4FDB8
:1014000009C02A3008F1C6FF05C02F7D3FEE320F1C
:101410003630C8F0B8010E94850CC1FFB4CFC7FFB9
:1014200008C0B094A09490948094811C911CA11C3D
:10143000B11C2C2FB501A401C7010E945F0981E0F6
:10144000A3CFC261D4CF27504C2FC501B4010E9455
:101450006B094B015C01C260D15009F3C8010E94C5
:10146000190C97FFC8CFD9CFA0E2B0E0EAE3FAE0C9
:101470000C941D0D5C01962E7A01CE0101966C0133
:1014800080E2F60111928A95E9F7F501B3818901AD
:1014900030E020E0712C812CA0E041E050E0F80128
:1014A000B3FD8591B3FF8191982F8F01811107C002
:1014B00010E000E0C801A096EDE00C94390D8E35E7
:1014C00019F42115310541F1A21713064CF48D359D
:1014D00049F18D3229F4811006C0882483941DC0FF
:1014E000882009F464C0E92FE695E695E695EC0DB1
:1014F000FD2DF11D892F8770BA0101C0660F8A95F5
:10150000EAF78081682B6083791651F0971510F403
:101510009F5FE9CF9150E7CFA1E02F5F3F4FBFCF53
:10152000812CFBCF882019F08E8180628E83AA23C4
:1015300059F0F6019E012F5D3F4F80818095808399
:101540003196E217F307C9F788248394C5010E94F6
:10155000190C97FD16C0E82FE695E695E695EC0D7B
:10156000FD2DF11D208130E0AC014770552702C0F0
:10157000359527954A95E2F720FD06C0B5010E94F2
:10158000850C882069F094CFE114F10429F0F7016B
:101590008083C70101967C019A94812C9110D6CF4B
:1015A000E114F10409F486CFF701108283CFE82F0C
:1015B000E695E695E695EC0DFD2DF11D982F9770BB
:1015C000BA0101C0660F9A95EAF79081692B608392
:1015D000782EA3CFB0E0A0E0E0EFFAE00C941B0D72
:1015E0006C01EB015A01FC0117821682512CF601A5
:1015F000E380FE01E3FC8591E3FE8191182FEF016A
:101600008823E9F090E00E94EF0B892B21F0C601BE
:101610000E948E09ECCF153241F4FE01E3FC1591D6
:10162000E3FE1191EF01153269F4C6010E94190C15
:1016300097FD8EC01817D9F2B6010E94850C852D32
:1016400090E08AC000E01A3231F4E3FC1591E3FE29
:101650001191EF0101E0F12C20ED210F2A3048F12A
:1016600001FF37C0FF2059F31836B1F11C3609F4D9
:101670003DC0112321F3612F70E088E690E00E94C5
:10168000F80B892BE1F2912C812C00FD06C0F501AD
:1016900080809180C50102965C011E3679F5F601C5
:1016A0004681578170E060E0202FC4010E945F09ED
:1016B0009ECF02606F2D70E090E080E040E20E94DB
:1016C0006B09F62EFE01E3FC1591E3FE1191EF018B
:1016D000C3CFFF24FA94C8CFFE01E3FC1591E3FECB
:1016E0001191EF01183609F0C4CF08600460FE01C3
:1016F000E3FC1591E3FE1191EF01BBCF1336C1F46A
:1017000001FD02C0FF24F394C6010E94190C97FD4D
:101710001FC08114910429F0F4018083C401019653
:101720004C01FA94F110F0CF00FD61CF53945FCFDC
:101730001B35B9F49E01A4016F2DC6010E94340A25
:10174000EC01892B89F7F6018381807309F477CF47
:101750008FEF9FEF511073CFCDB7DEB7EFE00C9452
:10176000370DC6010E948E0997FDF2CF1F36A9F1F1
:1017700030F4143641F0193639F0006405C01337DF
:10178000B9F01537D1F70062202FA4016F2DC601E3
:101790000E94A7098111C8CFD6CF8114910429F0E6
:1017A000F4016082C40101964C01FA94FF2071F0AB
:1017B000C6010E94190C3C0197FD08C00E94EF0B66
:1017C000892B59F3B601C3010E94850C8114910441
:1017D00009F4AACFF4011082A7CF0061D5CF9111EF
:1017E0000C94FB0C803219F089508550C8F708958D
:1017F000FC010590061621F00020D9F7C0010895DC
:101800003197CF010895FC0105906150704001109F
:10181000D8F7809590958E0F9F1F0895FC01615019
:10182000704001900110D8F7809590958E0F9F1F02
:101830000895CF93DF93EC012B8120FF1AC026FF80
:101840000CC02F7B2B838E819F8101969F838E837B
:101850008A8190E0DF91CF91089522FF18C0E8813E
:10186000F9818081082E000C990B009729F42062E1
:101870002B838FEF9FEFEECF3196F983E8832E8194
:101880003F812F5F3F4F3F832E839927E3CFEA8528
:10189000FB85099597FFF3CF2B81019621F080E21C
:1018A000822B8B83E6CF80E1FBCF0F931F93CF93E7
:1018B000DF93182F092FEB018B8181FD09C01FEFEA
:1018C0000FEF812F902FDF91CF911F910F910895EE
:1018D00082FF14C02E813F818C819D81281739079A
:1018E0003CF4E881F981CF010196998388831083C4
:1018F0008E819F8101969F838E83E3CFE885F98552
:10190000812F0995892BA1F3DACFFB01238120FFD9
:1019100011C026FD0FC08F3F980771F082832F7D85
:101920002064238326813781215031093783268320
:10193000992708958FEF9FEF0895FA01AA2728307D
:1019400051F1203181F1E8946F936E7F6E5F7F4F8C
:101950008F4F9F4FAF4FB1E03ED0B4E03CD0670F08
:10196000781F891F9A1FA11D680F791F8A1F911D5B
:10197000A11D6A0F711D811D911DA11D20D009F4AB
:1019800068943F912AE0269F11243019305D3193ED
:10199000DEF6CF010895462F4770405D4193B3E0D6
:1019A0000FD0C9F7F6CF462F4F70405D4A3318F07D
:1019B000495D31FD4052419302D0A9F7EACFB4E02E
:1019C000A6959795879577956795BA95C9F70097E6
:1019D0006105710508959B01AC010A2E0694579587
:1019E000479537952795BA95C9F7620F731F841FDE
:1019F000951FA01D0895992788270895F999FECF6E
:101A000092BD81BDF89A992780B50895262FF9993E
:101A1000FECF92BD81BDF89A019700B4021639F04D
:101A20001FBA20BD0FB6F894FA9AF99A0FBE08951E
:101A30002F923F924F925F926F927F928F929F92DE
:101A4000AF92BF92CF92DF92EF92FF920F931F93CC
:101A5000CF93DF93CDB7DEB7CA1BDB0B0FB6F8947D
:101A6000DEBF0FBECDBF09942A88398848885F84BD
:101A70006E847D848C849B84AA84B984C884DF802E
:101A8000EE80FD800C811B81AA81B981CE0FD11D12
:101A90000FB6F894DEBF0FBECDBFED010895F894E8
:021AA000FFCF76
:101AA200202020200044616E69656C205375680017
:101AB20045453130392050524F4A454354004D611B
:101AC200783D004D61783D256420200053414D5002
:101AD2004C494E472020202020202020002534641D
:101AE2006D733D25642E256400256425645D0053D5
:101AF200656E736F722054696D6564204F75740052
:00000001FF
