:100000000C9434000C9451000C9451000C94510049
:100010000C9487000C9451000C9451000C945100E6
:100020000C9451000C9451000C9451000C9451000C
:100030000C9451000C9451000C9451000C945100FC
:100040000C9451000C9451000C9451000C945100EC
:100050000C9451000C9451000C9451000C945100DC
:100060000C9451000C94510011241FBECFEFD8E026
:10007000DEBFCDBF11E0A0E0B1E0E0EBF5E002C0F3
:1000800005900D92A230B107D9F721E0A2E0B1E0CE
:1000900001C01D92A730B207E1F70E943C010C9409
:1000A000D6020C940000E0EBF0E080818360808356
:1000B00080818068808380E88093B300E1EBF0E08A
:1000C0008081876080830895A0E8B0E08C91836090
:1000D0008C93E1E8F0E080818861808388E893E197
:1000E000909389008093880087E791E090938B003C
:1000F00080938A008C9180628C938C918F7E8C93FC
:1001000080818360808380818B7F808308951F92AC
:100110000F920FB60F9211242F938F939F933499C0
:100120001CC081E08093060135991AC081E080935C
:10013000030180910401811122C080910601813068
:1001400091F49091050190930401809305018091B1
:10015000000190910101029626C010920601E4CFA1
:1001600010920301E6CF80910301813001F5809167
:1001700005018093040183E0809305010FC0809105
:100180000401813009F040C080910601811132C024
:100190008091050180930401109205018091000176
:1001A0009091010102979093010180930001909139
:1001B000050180910401981739F081E080930201D4
:1001C00080910501809304018091000190910101CB
:1001D0008C3B91050CF045C08CEB90E090930101B5
:1001E000809300019F918F912F910F900FBE0F90E0
:1001F0001F901895809103018130C9F68091050107
:100200008093040182E0A1CF809104018230A1F4A7
:1002100080910601811106C080910501809304013F
:1002200083E093CF809103018111C1CF80910501BB
:100230008093040181E0A0CF80910601813031F4E8
:10024000809105018093040182E096CF80910301A3
:100250008111ADCF809105018093040110920501B9
:1002600076CF8091000190910101833392400CF48C
:10027000B9CF82E392E0B2CF809168008260809330
:10028000680080916C00806380936C00789484B1E6
:100290008C6084B988B1806388B90E9464000E9430
:1002A000530034993BC081E080930601359939C0F1
:1002B00081E08093030180910301811135C0809119
:1002C0000601811131C010920401809104018093D4
:1002D0000501809102018823E1F3109202018091CF
:1002E00000019091010190938B0080938A006091AE
:1002F0000001709101016C5B7109072E000C880BE5
:10030000990B0E94DD0123EA3BE84EE25FE30E9485
:1003100041020E94AC016093B300DBCF1092060152
:10032000C5CF10920301C7CF80910301811108C08E
:1003300080910601882321F081E080930401C5CFDC
:1003400080910301882331F080910601811102C060
:1003500082E0F3CF83E0F1CF0E94200288F09F5724
:1003600098F0B92F9927B751B0F0E1F0660F771FD9
:10037000881F991F1AF0BA95C9F714C0B13091F0CF
:100380000E943A02B1E008950C943A02672F782F48
:100390008827B85F39F0B93FCCF386957795679594
:1003A000B395D9F73EF490958095709561957F4F00
:1003B0008F4F9F4F0895E89409C097FB3EF49095A6
:1003C0008095709561957F4F8F4F9F4F9923A9F02E
:1003D000F92F96E9BB279395F695879577956795BD
:1003E000B795F111F8CFFAF4BB0F11F460FF1BC001
:1003F0006F5F7F4F8F4F9F4F16C0882311F096E994
:1004000011C0772321F09EE8872F762F05C0662341
:1004100071F096E8862F70E060E02AF09A95660FFA
:10042000771F881FDAF7880F9695879597F90895B3
:1004300057FD9058440F551F59F05F3F71F0479595
:10044000880F97FB991F61F09F3F79F0879508957A
:10045000121613061406551FF2CF4695F1DF08C099
:10046000161617061806991FF1CF869571056105B6
:1004700008940895E894BB2766277727CB0197F95E
:1004800008950E9454020C94C5020E94B70238F0ED
:100490000E94BE0220F0952311F00C94AE020C9441
:1004A000B40211240C943B020E94180270F3959F31
:1004B000C1F3950F50E0551F629FF001729FBB275B
:1004C000F00DB11D639FAA27F00DB11DAA1F649FF7
:1004D0006627B00DA11D661F829F2227B00DA11DAA
:1004E000621F739FB00DA11D621F839FA00D611D30
:1004F000221F749F3327A00D611D231F849F600D51
:10050000211D822F762F6A2F11249F5750409AF079
:10051000F1F088234AF0EE0FFF1FBB1F661F771F05
:10052000881F91505040A9F79E3F510580F00C94D0
:10053000AE020C943B025F3FE4F3983ED4F3869501
:1005400077956795B795F795E7959F5FC1F7FE2B70
:10055000880F911D9695879597F9089597F99F674C
:1005600080E870E060E008959FEF80EC089500243B
:100570000A941616170618060906089500240A9408
:1005800012161306140605060895092E0394000C8E
:1005900011F4882352F0BB0F40F4BF2B11F460FF1D
:1005A00004C06F5F7F4F8F4F9F4F0895F894FFCF28
:0205B0007701D1
:00000001FF
