:100000000C9434000C9451000C9451000C94510049
:100010000C9451000C9451000C9451000C9451001C
:100020000C9451000C9451000C9451000C946600F7
:100030000C9451000C9451000C9451000C945100FC
:100040000C9451000C9451000C9451000C945100EC
:100050000C9451000C9451000C9451000C945100DC
:100060000C9451000C94510011241FBECFEFD8E026
:10007000DEBFCDBF11E0A0E0B1E0E4E8FAE002C0ED
:1000800005900D92A032B107D9F721E0A0E2B1E0CE
:1000900001C01D92A832B207E1F70E9457010C94EB
:1000A00040050C9400009C01E1E8F0E0908198602C
:1000B0009083AFE6B0E09C9192609C93309389006E
:1000C0002093880080818360808308951F920F921F
:1000D0000FB60F9211248F939F93809126019091D8
:1000E0002701019731F08091260190912701029715
:1000F000F1F48091240190912501099799F51092CE
:1001000025011092240180912201909123010997E9
:10011000F9F4109223011092220180912001909114
:100120002101059759F410922101109220019F910D
:100130008F910F900FBE0F901F9018958091200106
:100140009091210101969093210180932001EFCF9E
:100150008091220190912301019690932301809335
:100160002201E5CF80912401909125010196909381
:10017000250180932401DBCF9BB19F709BB99BB17C
:10018000807F892B8BB9299A299A29980895CF9332
:10019000C82F28980E94BC008C2F8295807F0E94D7
:1001A000BC008FE39FE10197F1F700C00000CF9101
:1001B0000895811104C080E8860F0C94C70080EC7C
:1001C000FBCF84B1836084B98AB1806F8AB98FE52F
:1001D0009AEE0197F1F700C0000080E30E94BC0096
:1001E0008FE19EE40197F1F700C0000080E30E94D8
:1001F000BC008FED91E00197F1F700C0000080E3B3
:100200000E94BC0080E20E94BC008FE39FE1019746
:10021000F1F700C0000088E20E94C7008FE00C9454
:10022000C700CF93C82F289A0E94BC008C2F8295BC
:10023000807F0E94BC008FE39FE10197F1F700C02F
:100240000000CF910895CF93DF93EC018991811144
:1002500003C0DF91CF9108950E941101F7CFACE761
:10026000B0E08C9180648C93EAE7F0E08081876055
:1002700080838C9180628C938081806880830895D4
:1002800090917C00907F90937C0090917C008F7087
:10029000892B80937C0080917A00806480937A001F
:1002A00080917A0086FDFCCF809179000895CF93EC
:1002B000DF9300D000D0CDB7DEB70E94E1000E94EE
:1002C0002F0181E00E94C70060E080E00E94D90019
:1002D00080E091E00E94230160E081E00E94D9006B
:1002E0008BE091E00E9423012FEF83ED90E32150FA
:1002F00080409040E1F700C0000081E00E94C7000C
:1003000088EA91E60E94530078944091240150912C
:1003100025012091220130912301809120019091AB
:1003200021015F934F933F932F939F938F9387E187
:1003300091E09F938F938E010F5F1F4F1F930F9339
:100340000E946802C8010E9423010FB6F894DEBF24
:100350000FBECDBF87E1E82E81E0F82ECC24C394F8
:10036000D12C22E0A22EB12C80E00E94400192ED1F
:10037000980F9A3008F05BC0809126019091270178
:10038000019709F041C010922701109226019FEFBA
:1003900021EE84E0915020408040E1F700C0000051
:1003A0008091260190912701019721F54091240128
:1003B000509125012091220130912301809120014B
:1003C000909121015F934F933F932F939F938F932E
:1003D000FF92EF921F930F930E94680260E080E00B
:1003E0000E94D900C8010E9423010FB6F894DEBF15
:1003F0000FBECDBF9FEF21EE84E0915020408040A2
:10040000E1F700C00000B0CF809126019091270154
:10041000892B29F4D0922701C0922601B8CF809170
:10042000260190912701029709F0B1CFF3CF8056B2
:100430008A3008F0B5CF809126019091270101976D
:1004400029F4B0922701A0922601A1CF8091260124
:10045000909127010297F1F2809126019091270156
:10046000892B09F094CF1092210110922001109253
:100470002501109224011092230110922201109262
:1004800027011092260140912401509125012091CD
:1004900022013091230180912001909121015F93ED
:1004A0004F933F932F939F938F93FF92EF921F93BE
:1004B0000F930E94680260E080E00E94D900C801AA
:1004C0000E9423010FB6F894DEBF0FBECDBF5FCFF1
:1004D000AEE0B0E0EEE6F2E00C9417050D891E895F
:1004E00086E08C831A8309838FEF9FE79E838D8339
:1004F000AE01475E5F4F6F89788DCE0101960E94F5
:100500008B022F813885020F131FF80110822E965F
:10051000E4E00C943305ABE0B0E0E1E9F2E00C94E8
:1005200009057C013B018A01FC0117821682838147
:1005300081FFC8C1CE0101965C01F7019381F301EF
:1005400093FD859193FF81913F01882309F453C165
:10055000853239F493FD859193FF81913F01853276
:1005600029F4B70190E00E947B04E7CF912C212C65
:10057000312CFFE1F31538F08B3211F190F4803219
:1005800009F1833229F137FC3CC020ED280F2A30D5
:1005900050F536FE20C08AE0989E200D1124922E40
:1005A00006C08D3291F0803371F7689430F8F30112
:1005B00093FD859193FF81913F018111DACF21C095
:1005C000689431F8689432F8F2CF689433F8EFCF3A
:1005D000689434F8ECCFEAE02E9E200D1124222EF0
:1005E000689435F8E4CF8E3229F436FC04C168945F
:1005F00036F8DDCF8C3619F4689437F8D8CF8836C2
:10060000B1F2982F9F7D95549330E0F08336A1F19D
:100610008337C1F1833509F063C02801F2E04F0E42
:10062000511CF801C080D180692D70E036FC02C0F9
:100630006FEF7FEFC6010E9465044C01689437F8A4
:1006400082010AC00C5F1F4FFFE3F9838824839463
:10065000912C6501E89437F833FE2DC0522C81149B
:10066000910471F5552009F468CFB70180E290E05C
:100670000E947B045A94F6CFF801808189830E5F33
:100680001F4FE4CF2801F2E04F0E511CF801C0804B
:10069000D180692D70E036FC02C06FEF7FEFC6019C
:1006A0000E9470044C018201D5CFB70180E290E036
:1006B0000E947B042A942814190409F0B0F7CECFC5
:1006C000F60137FC859137FE81916F01B70190E00B
:1006D0000E947B0451105A94F1E08F1A9108BFCF09
:1006E000843619F0893609F077C0F80137FE6BC0FF
:1006F00060817181828193810C5F1F4FF32DFF76A2
:100700003F2E97FF09C090958095709561957F4F1A
:100710008F4F9F4F689437F82AE030E0A5010E9480
:10072000AB04C82ECA188C2C432C36FE0CC0E8949F
:1007300040F8C91440F434FE05C032FC03C0F32D68
:10074000FE7E4F2E892C44FE95C0FE01EC0DF11D5E
:100750008081803309F087C0242D297E422E842D8C
:100760008870582E43FC95C040FE8FC09C2C82148C
:1007700018F42C0C922C981844FE91C0B70180E319
:1007800090E00E947B0442FE09C088E790E041FEB1
:1007900002C088E590E0B7010E947B04C91408F408
:1007A0008AC0CA94D12C9FEFC91AD90ACA0CDB1C83
:1007B000F60182916F01B70190E00E947B04AC14B6
:1007C000BD04B1F74FCF60817181072E000C880BFB
:1007D000990B0E5F1F4F92CFD32CE894D4F82AE0E8
:1007E00030E0853739F1232D297FD22E8F3601F164
:1007F00048F48835A9F0F701868197812B96E2E1CC
:100800000C942505803749F08837A9F7D4FE02C03B
:100810006894D2F820E130E00DC06894D4F8F6CFA7
:1008200034FE03C0822F8660D82E20E132E002C061
:1008300028E030E0F801D7FE0FC06081718182812D
:1008400093810C5F1F4FA5010E94AB04C82ECA18EC
:100850003D2CE89437F867CF6081718190E080E0AB
:100860000E5F1F4FF0CF42FC02C0839478CF839479
:10087000839475CF842D867809F471CFF6CFB701B4
:1008800080E290E00E947B0483948214C0F3512C98
:1008900073CF522C5818821408F46ECFF8CF842DE1
:1008A000867809F47BCF8BE241FE80E247FC8DE243
:1008B000B70190E071CFB70180E390E00E947B0424
:1008C0009A946CCF8FEF9FEF99CFFC010590615008
:1008D00070400110D8F7809590958E0F9F1F089556
:1008E000FC016150704001900110D8F780959095FF
:1008F0008E0F9F1F08950F931F93CF93DF93182F91
:10090000092FEB018B8181FD09C01FEF0FEF812FB4
:10091000902FDF91CF911F910F91089582FF14C006
:100920002E813F818C819D81281739073CF4E88115
:10093000F981CF0101969983888310838E819F81ED
:1009400001969F838E83E3CFE885F985812F0995F2
:10095000892BA1F3DACFFA01AA27283051F12031EF
:1009600081F1E8946F936E7F6E5F7F4F8F4F9F4F43
:10097000AF4FB1E03ED0B4E03CD0670F781F891F85
:100980009A1FA11D680F791F8A1F911DA11D6A0F53
:10099000711D811D911DA11D20D009F468943F9106
:1009A0002AE0269F11243019305D3193DEF6CF0105
:1009B0000895462F4770405D4193B3E00FD0C9F7CB
:1009C000F6CF462F4F70405D4A3318F0495D31FD38
:1009D0004052419302D0A9F7EACFB4E0A69597958B
:1009E000879577956795BA95C9F700976105710561
:1009F00008959B01AC010A2E0694579547953795AB
:100A00002795BA95C9F7620F731F841F951FA01D04
:100A100008952F923F924F925F926F927F928F92A2
:100A20009F92AF92BF92CF92DF92EF92FF920F937D
:100A30001F93CF93DF93CDB7DEB7CA1BDB0B0FB687
:100A4000F894DEBF0FBECDBF09942A883988488844
:100A50005F846E847D848C849B84AA84B984C884DA
:100A6000DF80EE80FD800C811B81AA81B981CE0FD1
:100A7000D11D0FB6F894DEBF0FBECDBFED010895B6
:040A8000F894FFCF18
:100A840044616E69656C20537568004545313039A1
:100A9400204C4142203800256425642E2564000042
:00000001FF
