:100000000C9434000C943E000C943E000C943E0082
:100010000C943E000C943E000C943E000C943E0068
:100020000C943E000C943E000C943E000C943E0058
:100030000C943E000C943E000C943E000C943E0048
:100040000C943E000C943E000C943E000C943E0038
:100050000C943E000C943E000C943E000C943E0028
:100060000C943E000C943E0011241FBECFEFD8E04C
:10007000DEBFCDBF0E94B3000C94F8000C940000CA
:100080009BB19F709BB99BB1807F892B8BB9299ABB
:10009000299A29980895CF93C82F28980E94400044
:1000A0008C2F8295807F0E9440008FE39FE1019713
:1000B000F1F700C00000CF910895811104C080E8DD
:1000C000860F0C944B0080ECFBCF84B1836084B925
:1000D0008AB1806F8AB98FE59AEE0197F1F700C077
:1000E000000080E30E9440008FE19EE40197F1F759
:1000F00000C0000080E30E9440008FED91E0019776
:10010000F1F700C0000080E30E94400080E20E94FE
:1001100040008FE39FE10197F1F700C0000088E203
:100120000E944B008FE00C944B00CF93C82F289A6D
:100130000E9440008C2F8295807F0E9440008FE3B8
:100140009FE10197F1F700C00000CF910895CF9390
:10015000DF93EC018991811103C0DF91CF91089564
:100160000E949500F7CF88B1846188B90E9465002C
:1001700010E000E0C5E0F12CE12C81E00E944B0092
:1001800080E38C0F0E949500329902C0F12CE12C83
:10019000349B1FC00530110549F4E114F104F9F452
:1001A000CF5F10E000E0CA3009F4C0E00F5F1F4FDE
:1001B0002FEF81EE94E0215080409040E1F700C0A5
:1001C0000000DBCFEE24E394F12C10E000E0C9E066
:1001D000EDCFEE24E394F12C0530110539F7CC2353
:1001E00089F3C150EE24E394F12C10E000E0DECF5F
:0401F000F894FFCFB1
:00000001FF
