:100000000C9434000C9449000C9449000C94490061
:100010000C9449000C9449000C9449000C9449003C
:100020000C9449000C9449000C9449000C9449002C
:100030000C9449000C9449000C9449000C9449001C
:100040000C9449000C9449000C9449000C9449000C
:100050000C9449000C9449000C9449000C944900FC
:100060000C9449000C94490011241FBECFEFD8E036
:10007000DEBFCDBF11E0A0E0B1E0ECE1FAE002C0EC
:1000800005900D92AC34B107D9F70E94BE000C94D4
:100090000C050C9400009BB19F709BB99BB1807FB5
:1000A000892B8BB9299A299A29980895CF93C82F1B
:1000B00028980E944B008C2F8295807F0E944B00D5
:1000C0008FE39FE10197F1F700C00000CF91089501
:1000D000811104C080E8860F0C94560080ECFBCFA1
:1000E00084B1836084B98AB1806F8AB98FE59AEE52
:1000F0000197F1F700C0000080E30E944B008FE100
:100100009EE40197F1F700C0000080E30E944B00DD
:100110008FED91E00197F1F700C0000080E30E94AD
:100120004B0080E20E944B008FE39FE10197F1F7C3
:1001300000C0000088E20E9456008FE00C94560038
:10014000CF93C82F289A0E944B008C2F8295807FD6
:100150000E944B008FE39FE10197F1F700C0000080
:10016000CF910895CF93DF93EC018991811103C062
:10017000DF91CF9108950E94A000F7CFCF93DF9336
:10018000CDB7DEB761970FB6F894DEBF0FBECDBF17
:100190000E94700081E00E94560080E091E00E9481
:1001A000B2001F9282E08F931F928AE18F931F9279
:1001B00088E08F938BE091E09F938F931F9281E172
:1001C0008F938E010F5F1F4F1F930F930E94270283
:1001D00060E081E00E946800C8010E94B2002FEF39
:1001E00033ED40E3215030404040E1F700C00000D3
:1001F00081E00E94560088B1846188B986E191E06F
:100200000E94B20060E081E00E94680080E291E01C
:100210000E94B20069E080E00E9468000FB6F89486
:10022000DEBF0FBECDBF30E020E090E080E032992D
:1002300025C02FEF39EF40E0215030404040E1F73A
:1002400000C00000009769F08130910539F56AE03F
:1002500080E00E9468008EE391E00E94B20082E09C
:1002600090E0329B66C03FEF46E751E0315040409E
:100270005040E1F700C0000030E020E0349980C039
:10028000009709F060C069E080E00E94680089E49E
:1002900091E00E94B20081E090E065C0823091055B
:1002A00079F469E080E00E94680082E391E00E94B6
:1002B000B20069E080E00E94680090E080E0D1CF69
:1002C0008330910569F46BE080E00E94680083E36D
:1002D00091E00E94B2006BE080E00E946800BFCF16
:1002E0008430910599F46DE080E00E9468008EE30F
:1002F00091E00E94B20068E081E00E94680080E422
:1003000091E00E94B20085E090E0ABCF853091058E
:1003100009F0A7CF69E080E00E9468008FE291E0D9
:100320000E94B20068E081E00E94680085E391E0ED
:10033000BECF5FEF60E722E0515060402040E1F720
:1003400000C000008ECF8130910569F082309105A8
:10035000D9F56BE080E00E94680089E491E00E949A
:10036000B20083E090E0349B68C04FEF56E761E055
:10037000415050406040E1F700C0000030E020E014
:100380004FEF51EE64E0415050406040E1F700C053
:1003900000002F5F3F4F2E31310509F048CF69E053
:1003A00080E00E9468008FE291E00E94B20068E065
:1003B00081E00E94680085E391E00E94B20069E05C
:1003C00080E00E9468002FCF8330910559F46CE0E3
:1003D00080E00E94680089E491E00E94B20084E01D
:1003E00090E0C1CF8430910569F46AE080E00E941A
:1003F000680080E391E00E94B2006AE080E00E9421
:10040000680049CF8530910509F0ADCF69E080E003
:100410000E9468008FE291E00E94B20068E081E0F3
:100420000E94680085E391E00E94B20069E080E0EC
:100430000E94680090E080E096CF6FEF20E732E006
:10044000615020403040E1F700C000008CCFAEE0AA
:10045000B0E0EDE2F2E00C94E3040D891E898F898F
:10046000988D26E02C831A83098397FF02C080E0D1
:1004700090E801979E838D83AE01455E5F4F698D45
:100480007A8DCE0101960E9457024D815E8157FD03
:100490000AC02F813885421753070CF49A01020FC6
:1004A000131FF80110822E96E4E00C94FF04ABE0D9
:1004B000B0E0EDE5F2E00C94D5047C013B018A014B
:1004C000FC0117821682838181FFC8C1CE0101968B
:1004D0005C01F7019381F30193FD859193FF819175
:1004E0003F01882309F453C1853239F493FD859186
:1004F00093FF81913F01853229F4B70190E00E947A
:100500004704E7CF912C212C312CFFE1F31538F073
:100510008B3211F190F4803209F1833229F137FCEA
:100520003CC020ED280F2A3050F536FE20C08AE06E
:10053000989E200D1124922E06C08D3291F08033AA
:1005400071F7689430F8F30193FD859193FF8191E1
:100550003F018111DACF21C0689431F8689432F8F4
:10056000F2CF689433F8EFCF689434F8ECCFEAE038
:100570002E9E200D1124222E689435F8E4CF8E3261
:1005800029F436FC04C1689436F8DDCF8C3619F4B2
:10059000689437F8D8CF8836B1F2982F9F7D95545C
:1005A0009330E0F08336A1F18337C1F1833509F050
:1005B00063C02801F2E04F0E511CF801C080D180C9
:1005C000692D70E036FC02C06FEF7FEFC6010E941C
:1005D00031044C01689437F882010AC00C5F1F4F48
:1005E000FFE3F98388248394912C6501E89437F81C
:1005F00033FE2DC0522C8114910471F5552009F45D
:1006000068CFB70180E290E00E9447045A94F6CF89
:10061000F801808189830E5F1F4FE4CF2801F2E04B
:100620004F0E511CF801C080D180692D70E036FC5E
:1006300002C06FEF7FEFC6010E943C044C018201B3
:10064000D5CFB70180E290E00E9447042A94281495
:10065000190409F0B0F7CECFF60137FC859137FECB
:1006600081916F01B70190E00E94470451105A94A4
:10067000F1E08F1A9108BFCF843619F0893609F05E
:1006800077C0F80137FE6BC06081718182819381F0
:100690000C5F1F4FF32DFF763F2E97FF09C09095FB
:1006A0008095709561957F4F8F4F9F4F689437F875
:1006B0002AE030E0A5010E947704C82ECA188C2CCD
:1006C000432C36FE0CC0E89440F8C91440F434FEC4
:1006D00005C032FC03C0F32DFE7E4F2E892C44FE54
:1006E00095C0FE01EC0DF11D8081803309F087C0BB
:1006F000242D297E422E842D8870582E43FC95C0CF
:1007000040FE8FC09C2C821418F42C0C922C98184C
:1007100044FE91C0B70180E390E00E94470442FE8E
:1007200009C088E790E041FE02C088E590E0B7018B
:100730000E944704C91408F48AC0CA94D12C9FEFC0
:10074000C91AD90ACA0CDB1CF60182916F01B701E4
:1007500090E00E944704AC14BD04B1F74FCF608114
:100760007181072E000C880B990B0E5F1F4F92CFE3
:10077000D32CE894D4F82AE030E0853739F1232DE2
:10078000297FD22E8F3601F148F48835A9F0F70180
:10079000868197812B96E2E10C94F104803749F031
:1007A0008837A9F7D4FE02C06894D2F820E130E07F
:1007B0000DC06894D4F8F6CF34FE03C0822F866053
:1007C000D82E20E132E002C028E030E0F801D7FE68
:1007D0000FC060817181828193810C5F1F4FA501E1
:1007E0000E947704C82ECA183D2CE89437F867CFCA
:1007F0006081718190E080E00E5F1F4FF0CF42FC7E
:1008000002C0839478CF8394839475CF842D8678A7
:1008100009F471CFF6CFB70180E290E00E9447045F
:1008200083948214C0F3512C73CF522C5818821425
:1008300008F46ECFF8CF842D867809F47BCF8BE255
:1008400041FE80E247FC8DE2B70190E071CFB70135
:1008500080E390E00E9447049A946CCF8FEF9FEF63
:1008600099CFFC010590615070400110D8F7809538
:1008700090958E0F9F1F0895FC016150704001906C
:100880000110D8F7809590958E0F9F1F08950F93B4
:100890001F93CF93DF93182F092FEB018B8181FDDD
:1008A00009C01FEF0FEF812F902FDF91CF911F9184
:1008B0000F91089582FF14C02E813F818C819D810C
:1008C000281739073CF4E881F981CF010196998313
:1008D000888310838E819F8101969F838E83E3CFCF
:1008E000E885F985812F0995892BA1F3DACFFA01E3
:1008F000AA27283051F1203181F1E8946F936E7F5F
:100900006E5F7F4F8F4F9F4FAF4FB1E03ED0B4E04F
:100910003CD0670F781F891F9A1FA11D680F791F90
:100920008A1F911DA11D6A0F711D811D911DA11DA1
:1009300020D009F468943F912AE0269F11243019B1
:10094000305D3193DEF6CF010895462F4770405D4C
:100950004193B3E00FD0C9F7F6CF462F4F70405DFB
:100960004A3318F0495D31FD4052419302D0A9F756
:10097000EACFB4E0A6959795879577956795BA9550
:10098000C9F700976105710508959B01AC010A2E16
:1009900006945795479537952795BA95C9F7620FED
:1009A000731F841F951FA01D08952F923F924F9291
:1009B0005F926F927F928F929F92AF92BF92CF92EF
:1009C000DF92EF92FF920F931F93CF93DF93CDB7F8
:1009D000DEB7CA1BDB0B0FB6F894DEBF0FBECDBF70
:1009E00009942A88398848885F846E847D848C8441
:1009F0009B84AA84B984C884DF80EE80FD800C814A
:100A00001B81AA81B981CE0FD11D0FB6F894DEBF2C
:0C0A10000FBECDBFED010895F894FFCF9C
:100A1C0044616E69656C20537568003025642F2520
:100A2C00642F30256400456E74657265643A20004D
:100A3C005374617475733A204C6F636B656400205A
:100A4C0020202020004C6F636B6564202000410047
:0C0A5C00556E6C6F636B65640042000017
:00000001FF
