:100000000C9434000C9449000C9449000C94490061
:100010000C9449000C9449000C9449000C9449003C
:100020000C9449000C9449000C9449000C9449002C
:100030000C9449000C9449000C9449000C9449001C
:100040000C9449000C9449000C9449000C9449000C
:100050000C9449000C9449000C9449000C944900FC
:100060000C9449000C94490011241FBECFEFD8E036
:10007000DEBFCDBF11E0A0E0B1E0EEE8F1E002C0EC
:1000800005900D92A830B107D9F70E948A000C9410
:10009000C5000C940000882311F05A9A08955A98CC
:1000A00008955A9A2FEF84E39CE0215080409040BD
:1000B000E1F700C0000080E00E944B002FEF84E3D6
:1000C0009CE0215080409040E1F700C0000008957E
:1000D0005A9A2FEF8EE994E2215080409040E1F748
:1000E00000C0000080E00E944B002FEF84E39CE002
:1000F000215080409040E1F700C00000089523B1F6
:1001000030E0A90102C0559547958A95E2F7CA01EA
:100110008170089584E08AB985B1886385B983E0E8
:100120000E947F00811119C00E9451000E9451005D
:100130000E9468002FEF84E39CE0215080409040B3
:10014000E1F700C000002FEF84E39CE021508040E5
:100150009040E1F700C00000E2CF84E00E947F0001
:10016000811107C00E9451000E9451000E9451005D
:10017000E1CF85E00E947F008111D1CF0E9468000D
:0E0180000E9451000E946800F1CFF894FFCF5A
:08018E00A170E8E70100000088
:00000001FF
