:100000000C9434000C9449000C9449000C94490061
:100010000C9449000C9449000C9449000C9449003C
:100020000C9449000C9449000C9449000C9449002C
:100030000C9449000C9449000C9449000C9449001C
:100040000C9449000C9449000C9449000C9449000C
:100050000C9449000C9449000C9449000C944900FC
:100060000C9449000C94490011241FBECFEFD8E036
:10007000DEBFCDBF11E0A0E0B1E0ECE5F5E002C0ED
:1000800005900D92AC32B107D9F70E9409010C948A
:10009000AC020C940000EF92FF920F931F93CF934A
:1000A000DF9303E0D0E0C0E011E0812F0E947F00E9
:1000B000CC0FDD1F80FBEE24E0F8F12CCE0DDF1D10
:1000C0001F5F163091F7015079F7CE01DF91CF9184
:1000D0001F910F91FF90EF900C943E02ACE7B0E0BF
:1000E0008C9180648C93EAE7F0E080818760808364
:1000F0008C9180628C938081806880830895909138
:100100007C00907F90937C0090917C008F70892B75
:1001100080937C0080917A00806480937A00809143
:100120007A0086FDFCCF8091790008959BB19F7085
:100130009BB99BB1807F892B8BB9299A299A2998E1
:100140000895CF93C82F28980E9496008C2F8295EF
:10015000807F0E9496008FE39FE10197F1F700C036
:100160000000CF910895811104C080E8860F0C949F
:10017000A10080ECFBCF84B1836084B98AB1806F29
:100180008AB98FE59AEE0197F1F700C0000080E38D
:100190000E9496008FE19EE40197F1F700C00000F5
:1001A00080E30E9496008FED91E00197F1F700C087
:1001B000000080E30E94960080E20E9496008FE398
:1001C0009FE10197F1F700C0000088E20E94A100C2
:1001D0008FE00C94A100CF93C82F289A0E9496001C
:1001E0008C2F8295807F0E9496008FE39FE101977C
:1001F000F1F700C00000CF910895CF93DF93EC0199
:100200008991811103C0DF91CF9108950E94EB0085
:10021000F7CF0E94BB000E946E000E944B0081E05D
:100220000E94A10060E080E00E94B30084E091E0C1
:100230000E94FD0060E081E00E94B3008FE091E049
:100240000E94FD002FEF83ED90E32150804090400D
:10025000E1F700C0000081E00E94A10088B1846144
:1002600088B90E94390260E170E00E94C501EC018A
:10027000682F80E00E94B3006C2F80E00E94B300E2
:100280008BE191E00E94FD00F12CE12CD12C81E169
:10029000C82E80E00E947F0099E6980F993008F000
:1002A00058C06C2F80E00E94B3008DE191E00E9465
:1002B000FD00209709F021976C2F80E00E94B30089
:1002C0008BE191E00E94FD002FEF81EE94E0215040
:1002D00080409040E1F700C0000083E00E947F0072
:1002E0000FE010E08F3F29F06C2D0E94B901082F1C
:1002F00010E06D2D81E00E94B3008DE191E00E943D
:10030000FD00602F81E00E94B3008FE191E00E9428
:10031000FD008FE39CE90197F1F700C00000C017D2
:10032000D10799F49FEFE91AF90A24E6E216F104DD
:1003300071F481E00E94A10064E080E00E94B300BB
:1003400081E291E00E94FD00FFCFF12CE12CD02E44
:10035000A0CF843110F66C2F80E00E94B3008DE1B5
:1003600091E00E94FD00CF30D10509F4A5CF219680
:10037000A3CF991B79E004C0991F961708F0961B2C
:10038000881F7A95C9F78095089597FB072E16F474
:10039000009407D077FD09D00E94D90107FC05D051
:1003A0003EF4909581959F4F0895709561957F4F8C
:1003B0000895AA1BBB1B51E107C0AA1FBB1FA617AC
:1003C000B70710F0A61BB70B881F991F5A95A9F7FE
:1003D00080959095BC01CD0108958F929F92AF9228
:1003E000BF92CF92DF92EF92FF92CF93DF93EC0117
:1003F000688179818A819B816115710581059105EB
:1004000021F464E279ED8BE597E02DE133EF41E0F3
:1004100050E00E94490249015A019B01AC01A7EA40
:10042000B1E40E9468026B017C01ACEEB4EFA5015F
:1004300094010E947602DC01CB018C0D9D1DAE1D46
:10044000BF1DB7FF03C00197A109B04888839983F6
:10045000AA83BB839F77DF91CF91FF90EF90DF90CE
:10046000CF90BF90AF909F908F9008950E94ED0124
:10047000089580E091E00E94ED010895B0E0A0E0D1
:100480008093000190930101A0930201B0930301B6
:100490000895052E97FB1EF400940E94600257FDFC
:1004A00007D00E947B0207FC03D04EF40C9460023C
:1004B00050954095309521953F4F4F4F5F4F089590
:1004C00090958095709561957F4F8F4F9F4F0895C0
:1004D0000E949D02A59F900DB49F900DA49F800D3A
:1004E000911D11240895B7FF0C9468020E946802C0
:1004F000821B930B0895A1E21A2EAA1BBB1BFD01C0
:100500000DC0AA1FBB1FEE1FFF1FA217B307E407F2
:10051000F50720F0A21BB30BE40BF50B661F771F4A
:10052000881F991F1A9469F760957095809590952A
:100530009B01AC01BD01CF010895A29FB001B39F03
:10054000C001A39F700D811D1124911DB29F700DDC
:0C055000811D1124911D0895F894FFCF27
:10055C000100000044616E69656C205375680045AC
:10056C0045313039204C4142203600580020005E85
:0C057C000047414D45204F5645520000FD
:00000001FF
