:100000000C9434000C9451000C9451000C94510049
:100010000C9453000C9451000C9451000C9451001A
:100020000C9451000C9451000C9451000C9451000C
:100030000C9451000C9451000C9451000C945100FC
:100040000C9451000C9451000C9451000C945100EC
:100050000C9451000C9451000C9451000C945100DC
:100060000C9451000C94510011241FBECFEFD8E026
:10007000DEBFCDBF11E0A0E0B1E0E6E7FBE002C0EB
:1000800005900D92AA32B107D9F721E0AAE2B1E0BA
:1000900001C01D92A133B207E1F70E9491010C94B7
:1000A000B9050C9400001F920F920FB60F92112405
:1000B0008F939F9331991CC081E0809330013599D3
:1000C0001AC081E080932D0180912E01811122C000
:1000D00080913001813091F490912F0190932E0105
:1000E00080932F0180912A0190912B01019625C0C8
:1000F00010923001E4CF10922D01E6CF80912D01B6
:100100008130F9F480912F0180932E0183E0809358
:100110002F010EC080912E01813089F58091300130
:10012000811123C080912F0180932E0110922F0105
:1001300080912A0190912B01019790932B0180933C
:100140002A0190912F0180912E01981739F081E0BA
:1001500080932C0180912F0180932E019F918F918C
:100160000F900FBE0F901F90189580912D01813038
:1001700041F780912F0180932E0182E0B1CF8091D1
:100180002E018230A1F480913001811106C080914E
:100190002F0180932E0183E0A3CF80912D01811147
:1001A000D0CF80912F0180932E0181E0B0CF80913C
:1001B0003001813031F480912F0180932E0182E053
:1001C000A6CF80912D018111BCCF80912F0180930A
:1001D0002E0110922F0186CF05966AE070E00E94F2
:1001E0006B026150710908F4089585E38A95F1F76F
:1001F0000000F7CF0F931F93CF93DF93EC019C0187
:1002000050E040E060E472E48FE090E00E947F0202
:1002100089019A013695279517950795219728F416
:10022000DF91CF911F910F9108952C9AC8010E94E0
:10023000EC002C98C8010E94EC00F0CF9BB19F709D
:100240009BB99BB1807F892B8BB9299A299A2998D0
:100250000895CF93C82F28980E941E018C2F829555
:10026000807F0E941E018FE39FE10197F1F700C09C
:100270000000CF910895811104C080E8860F0C948E
:10028000290180ECFBCF84B1836084B98AB1806F8F
:100290008AB98FE59AEE0197F1F700C0000080E37C
:1002A0000E941E018FE19EE40197F1F700C000005B
:1002B00080E30E941E018FED91E00197F1F700C0ED
:1002C000000080E30E941E0180E20E941E018FE375
:1002D0009FE10197F1F700C0000088E20E94290128
:1002E0008FE00C942901CF93C82F289A0E941E01F9
:1002F0008C2F8295807F0E941E018FE39FE10197E2
:10030000F1F700C00000CF910895CF93DF93EC0187
:100310008991811103C0DF91CF9108950E947301EB
:10032000F7CFCF93DF93CDB7DEB72F970FB6F89403
:10033000DEBF0FBECDBF80916800826080936800F1
:1003400080916C00826280936C007894249A88B1CA
:10035000826288B90E94430181E00E94290160E025
:1003600080E00E943B0180E191E00E94850160E015
:1003700081E00E943B018BE191E00E9485012FEF1B
:1003800033ED80E3215030408040E1F700C00000B1
:1003900081E00E942901319980C081E08093300181
:1003A00035997EC081E080932D0180912D018111CE
:1003B0007AC080913001811176C010922E01809117
:1003C0002E0180932F0160E080E00E943B0181E0DC
:1003D0000E94290180912A0190912B019F938F9374
:1003E00087E291E09F938F931F928FE08F938E010E
:1003F0000F5F1F4F1F930F930E94D402C8010E94EA
:1004000085010FB6F894DEBF0FBECDBF97E2E92E8F
:1004100091E0F92E2FE0D22E80912C018823E1F378
:1004200010922C0160E080E00E943B0181E00E947C
:10043000290180912A0190912B019F938F93FF9224
:10044000EF921F92DF921F930F930E94D402C80174
:100450000E94850180912A0190912B018770992734
:100460000FB6F894DEBF0FBECDBF892BA9F6E09181
:100470002A01F0912B01F7FF03C0F195E195F109F5
:10048000F695E795F695E795EE70FF27E050FF4F5C
:10049000808191810E94FA00BFCF1092300180CFFD
:1004A00010922D0182CF80912D01811108C0809181
:1004B0003001882321F081E080932E0180CF80914C
:1004C0002D01882331F080913001811102C082E03A
:1004D000F3CF83E0F1CF97FB072E16F4009407D0FB
:1004E00077FD09D00E949E0207FC05D03EF490954E
:1004F00081959F4F0895709561957F4F0895052EC2
:1005000097FB1EF400940E94960257FD07D00E94AC
:10051000B20207FC03D04EF40C949602509540951D
:10052000309521953F4F4F4F5F4F0895909580959F
:10053000709561957F4F8F4F9F4F0895AA1BBB1BEE
:1005400051E107C0AA1FBB1FA617B70710F0A61BD3
:10055000B70B881F991F5A95A9F780959095BC01F4
:10056000CD010895A1E21A2EAA1BBB1BFD010DC0EF
:10057000AA1FBB1FEE1FFF1FA217B307E407F50753
:1005800020F0A21BB30BE40BF50B661F771F881F2F
:10059000991F1A9469F760957095809590959B01C5
:1005A000AC01BD01CF010895AEE0B0E0EAEDF2E0AC
:1005B0000C9490050D891E898F89988D26E02C83D7
:1005C0001A83098397FF02C080E090E801979E8319
:1005D0008D83AE01455E5F4F698D7A8DCE010196A8
:1005E0000E9404034D815E8157FD0AC02F8138852A
:1005F000421753070CF49A01020F131FF8011082DF
:100600002E96E4E00C94AC05ABE0B0E0EAE0F3E059
:100610000C9482057C013B018A01FC011782168241
:10062000838181FFC8C1CE0101965C01F7019381EE
:10063000F30193FD859193FF81913F01882309F494
:1006400053C1853239F493FD859193FF81913F0128
:10065000853229F4B70190E00E94F404E7CF912C91
:10066000212C312CFFE1F31538F08B3211F190F48D
:10067000803209F1833229F137FC3CC020ED280F8C
:100680002A3050F536FE20C08AE0989E200D1124B5
:10069000922E06C08D3291F0803371F7689430F855
:1006A000F30193FD859193FF81913F018111DACF91
:1006B00021C0689431F8689432F8F2CF689433F826
:1006C000EFCF689434F8ECCFEAE02E9E200D112491
:1006D000222E689435F8E4CF8E3229F436FC04C11A
:1006E000689436F8DDCF8C3619F4689437F8D8CF93
:1006F0008836B1F2982F9F7D95549330E0F0833681
:10070000A1F18337C1F1833509F063C02801F2E01C
:100710004F0E511CF801C080D180692D70E036FC6D
:1007200002C06FEF7FEFC6010E94DE044C016894A7
:1007300037F882010AC00C5F1F4FFFE3F98388245A
:100740008394912C6501E89437F833FE2DC0522C28
:100750008114910471F5552009F468CFB70180E246
:1007600090E00E94F4045A94F6CFF80180818983C6
:100770000E5F1F4FE4CF2801F2E04F0E511CF8012D
:10078000C080D180692D70E036FC02C06FEF7FEF32
:10079000C6010E94E9044C018201D5CFB70180E275
:1007A00090E00E94F4042A942814190409F0B0F788
:1007B000CECFF60137FC859137FE81916F01B701ED
:1007C00090E00E94F40451105A94F1E08F1A9108BD
:1007D000BFCF843619F0893609F077C0F80137FEAB
:1007E0006BC060817181828193810C5F1F4FF32DFB
:1007F000FF763F2E97FF09C0909580957095619583
:100800007F4F8F4F9F4F689437F82AE030E0A50163
:100810000E942405C82ECA188C2C432C36FE0CC00E
:10082000E89440F8C91440F434FE05C032FC03C01B
:10083000F32DFE7E4F2E892C44FE95C0FE01EC0D5B
:10084000F11D8081803309F087C0242D297E422E3E
:10085000842D8870582E43FC95C040FE8FC09C2C80
:10086000821418F42C0C922C981844FE91C0B701F5
:1008700080E390E00E94F40442FE09C088E790E023
:1008800041FE02C088E590E0B7010E94F404C9145B
:1008900008F48AC0CA94D12C9FEFC91AD90ACA0C8D
:1008A000DB1CF60182916F01B70190E00E94F40415
:1008B000AC14BD04B1F74FCF60817181072E000CDD
:1008C000880B990B0E5F1F4F92CFD32CE894D4F86E
:1008D0002AE030E0853739F1232D297FD22E8F365B
:1008E00001F148F48835A9F0F701868197812B96AC
:1008F000E2E10C949E05803749F08837A9F7D4FED1
:1009000002C06894D2F820E130E00DC06894D4F8B9
:10091000F6CF34FE03C0822F8660D82E20E132E06D
:1009200002C028E030E0F801D7FE0FC0608171817D
:10093000828193810C5F1F4FA5010E942405C82E60
:10094000CA183D2CE89437F867CF6081718190E038
:1009500080E00E5F1F4FF0CF42FC02C0839478CF3F
:100960008394839475CF842D867809F471CFF6CF64
:10097000B70180E290E00E94F40483948214C0F3F3
:10098000512C73CF522C5818821408F46ECFF8CF24
:10099000842D867809F47BCF8BE241FE80E247FC10
:1009A0008DE2B70190E071CFB70180E390E00E9443
:1009B000F4049A946CCF8FEF9FEF99CFFC010590D0
:1009C000615070400110D8F7809590958E0F9F1F51
:1009D0000895FC016150704001900110D8F7809596
:1009E00090958E0F9F1F08950F931F93CF93DF93C2
:1009F000182F092FEB018B8181FD09C01FEF0FEF2D
:100A0000812F902FDF91CF911F910F91089582FF39
:100A100014C02E813F818C819D81281739073CF4B9
:100A2000E881F981CF0101969983888310838E81B3
:100A30009F8101969F838E83E3CFE885F985812F7F
:100A40000995892BA1F3DACFFA01AA27283051F1B1
:100A5000203181F1E8946F936E7F6E5F7F4F8F4FEF
:100A60009F4FAF4FB1E03ED0B4E03CD0670F781F4E
:100A7000891F9A1FA11D680F791F8A1F911DA11D33
:100A80006A0F711D811D911DA11D20D009F468946C
:100A90003F912AE0269F11243019305D3193DEF614
:100AA000CF010895462F4770405D4193B3E00FD0CA
:100AB000C9F7F6CF462F4F70405D4A3318F0495DB5
:100AC00031FD4052419302D0A9F7EACFB4E0A69598
:100AD0009795879577956795BA95C9F700976105BA
:100AE000710508959B01AC010A2E06945795479510
:100AF00037952795BA95C9F7620F731F841F951F05
:100B0000A01D08952F923F924F925F926F927F9215
:100B10008F929F92AF92BF92CF92DF92EF92FF920D
:100B20000F931F93CF93DF93CDB7DEB7CA1BDB0BB9
:100B30000FB6F894DEBF0FBECDBF09942A8839885E
:100B400048885F846E847D848C849B84AA84B98465
:100B5000C884DF80EE80FD800C811B81AA81B98171
:100B6000CE0FD11D0FB6F894DEBF0FBECDBFED0185
:060B70000895F894FFCF88
:100B7600060126014A015D018801B801EE010B025A
:100B860044616E69656C205375680045453130399E
:0A0B9600204C414220370025640086
:00000001FF
